:020000040000FA
:100000000C9462000C948A000C948A000C948A0070
:100010000C948A000C948A000C948A000C948A0038
:100020000C948A000C948A000C948A000C948A0028
:100030000C948A000C948A000C948A000C948A0018
:100040000C946D020C948A000C94DD020C94B7029F
:100050000C948A000C948A000C948A000C948A00F8
:100060000C948A000C948A000000000023002600F3
:10007000290000000000240027002A0000000000E2
:10008000250028002B0004040404040404040202D4
:100090000202020203030303030301020408102007
:1000A0004080010204081020010204081020000012
:1000B0000008000201000003040700000000000027
:1000C00000005E0411241FBECFEFD8E0DEBFCDBF1D
:1000D00011E0A0E0B1E0E8E8FBE002C005900D927D
:1000E000AA31B107D9F721E0AAE1B1E001C01D9220
:1000F000A03CB207E1F710E0C2E6D0E004C02197CF
:10010000FE010E94BC05C136D107C9F70E94540305
:100110000C94C2050C94000090E0FC01E255FF4FE6
:100120002491FC01E656FF4F3491FC01EA57FF4F42
:10013000E491EE23C9F0222339F0233001F1A8F431
:10014000213019F1223029F1F0E0EE0FFF1FE458C1
:10015000FF4FA591B4918FB7F894EC91611126C02F
:1001600030953E233C938FBF08952730A9F0283067
:10017000C9F0243049F7809180008F7D03C08091C1
:1001800080008F7780938000DFCF84B58F7784BD28
:10019000DBCF84B58F7DFBCF8091B0008F778093CC
:1001A000B000D2CF8091B0008F7DF9CF3E2BDACF57
:1001B000CF93DF9390E0FC01E656FF4F24918A57DE
:1001C0009F4FFC0184918823D1F090E0880F991F04
:1001D000FC01EE58FF4FA591B491FC01E458FF4F8C
:1001E000C591D49161110EC09FB7F8948C91E22F04
:1001F000E0958E238C932881E223E8839FBFDF91D3
:10020000CF9108958FB7F894EC91E22BEC938FBFC8
:10021000F6CF3FB7F8948091BC019091BD01A091B9
:10022000BE01B091BF0126B5A89B05C02F3F19F0B4
:100230000196A11DB11D3FBFBA2FA92F982F882766
:10024000BC01CD01620F711D811D911D42E0660F41
:10025000771F881F991F4A95D1F708958F929F9213
:10026000AF92BF92CF92DF92EF92FF924B015C016F
:100270000E9409016B017C010E9409016C197D0932
:100280008E099F09683E734081059105A8F321E01E
:10029000821A9108A108B10888EEC80E83E0D81E22
:1002A000E11CF11C81149104A104B10429F7FF9011
:1002B000EF90DF90CF90BF90AF909F908F90089578
:1002C000AF92BF92CF92DF92EF92FF920F931F9364
:1002D000CF93DF936C017B018B01040F151FEB01A2
:1002E0005E01AE18BF08C017D10759F06991D60159
:1002F000ED91FC910190F081E02DC6010995892BCB
:1003000079F7C501DF91CF911F910F91FF90EF9089
:10031000DF90CF90BF90AF900895FC01538D448D36
:10032000252F30E0842F90E0821B930B541710F0A0
:10033000CF96089501970895FC01918D828D9817AD
:1003400061F0A28DAE0FBF2FB11D5D968C91928D85
:100350009F5F9F73928F90E008958FEF9FEF0895B6
:10036000FC01918D828D981731F0828DE80FF11D7F
:10037000858D90E008958FEF9FEF0895FC01918D9A
:10038000228D892F90E0805C9F4F821B91098F7393
:10039000992708958AE191E00E94BE0121E0892B0E
:1003A00009F420E0822F089580E090E0892B29F065
:1003B0000E94CA0181110C9400000895FC01A48DD3
:1003C000A80FB92FB11DA35ABF4F2C91848D90E077
:1003D00001968F739927848FA689B7892C93A0895A
:1003E000B1898C91837080648C93938D848D9813E4
:1003F00006C00288F389E02D80818F7D8083089577
:10040000EF92FF920F931F93CF93DF93EC0181E064
:10041000888F9B8D8C8D98131AC0E889F98980810B
:1004200085FF15C09FB7F894EE89FF896083E8893E
:10043000F98980818370806480839FBF81E090E030
:10044000DF91CF911F910F91FF90EF900895F62EBD
:100450000B8D10E00F5F1F4F0F731127E02E8C8D57
:100460008E110CC00FB607FCFACFE889F98980819C
:1004700085FFF5CFCE010E94DE01F1CFEB8DEC0FB1
:10048000FD2FF11DE35AFF4FF0829FB7F8940B8FB9
:10049000EA89FB8980818062CFCFCF93DF93EC0123
:1004A000888D8823B9F0AA89BB89E889F9898C915C
:1004B00085FD03C0808186FD0DC00FB607FCF7CF18
:1004C0008C9185FFF2CF808185FFEDCFCE010E9418
:1004D000DE01E9CFDF91CF9108951F920F920FB601
:1004E0000F9211242F933F938F939F93AF93BF93BA
:1004F0008091B8019091B901A091BA01B091BB016E
:100500003091B70123E0230F2D3758F50196A11D37
:10051000B11D2093B7018093B8019093B901A093C6
:10052000BA01B093BB018091BC019091BD01A09133
:10053000BE01B091BF010196A11DB11D8093BC0108
:100540009093BD01A093BE01B093BF01BF91AF9145
:100550009F918F913F912F910F900FBE0F901F9001
:10056000189526E8230F0296A11DB11DD2CF1F9228
:100570000F920FB60F9211242F933F934F935F93D7
:100580006F937F938F939F93AF93BF93EF93FF935B
:100590008AE191E00E94DE01FF91EF91BF91AF915E
:1005A0009F918F917F916F915F914F913F912F918B
:1005B0000F900FBE0F901F9018951F920F920FB6BD
:1005C0000F9211242F938F939F93EF93FF93E091BA
:1005D0002A01F0912B018081E0913001F0913101ED
:1005E00082FD1BC09081809133018F5F8F732091BA
:1005F0003401821741F0E0913301F0E0E65EFE4FF6
:10060000958F80933301FF91EF919F918F912F915F
:100610000F900FBE0F901F9018958081F4CFCF924E
:10062000DF92EF92FF920F931F93E82FF92F05C0EF
:10063000015011092109310961F190819623941724
:10064000B9F305C0015011092109310911F1908157
:1006500096239413F7CFC12CD12CE12CF12C0AC096
:100660008FEFC81AD80AE80AF80A0C151D052E05DE
:100670003F0579F080818623841791F36C2D7D2DC1
:100680008E2D9F2D1F910F91FF90EF90DF90CF90B7
:10069000089560E070E080E090E01F910F91FF907E
:1006A000EF90DF90CF900895789484B5826084BDF8
:1006B00084B5816084BD85B5826085BD85B5816066
:1006C00085BD80916E00816080936E0010928100E4
:1006D000809181008260809381008091810081609F
:1006E0008093810080918000816080938000809160
:1006F000B10084608093B1008091B00081608093EC
:10070000B00080917A00846080937A0080917A00B2
:10071000826080937A0080917A00816080937A0071
:1007200080917A00806880937A001092C10061E025
:1007300082E00E94D80060E083E00E94D80061E07F
:1007400084E00E94D800E0912A01F0912B0182E020
:100750008083E0912601F09127011082E091280129
:10076000F09129018FEC808310923201E0912E01EB
:10077000F0912F0186E08083E0912C01F0912D0112
:10078000808180618083E0912C01F0912D01808136
:1007900088608083E0912C01F0912D018081806838
:1007A0008083E0912C01F0912D0180818F7D8083E9
:1007B000C3E0D0E093E2E92EF12C2DE9C22E20E037
:1007C000D22E39E8A32E30E0B32E40E0842E40E054
:1007D000942E60E082E00E948C00CE010197F1F738
:1007E00061E082E00E948C00C7010197F1F760E0B0
:1007F00082E00E948C00F6016491F5018491E82F5B
:10080000F0E0EE0FFF1FE859FF4F8591949100E44F
:1008100012E42FE030E0462F0E940F0361157105AE
:100820008105910529F06F5F7F4F8F4F9F4F9F701C
:100830000E94C30426E933E44BE05DE30E942705F0
:1008400020E030E040E05FE30E9427050E948B0437
:10085000615071096930710560F561E084E00E94C2
:100860008C0044E050E062E171E08AE191E00E9496
:10087000600142E050E067E171E08AE191E00E94AE
:10088000600168EE73E080E090E00E942E0164E673
:1008900070E080E090E00E942E018114910409F440
:1008A00098CF0E94CA01882309F493CF0E940000C8
:1008B00090CF60E084E00E948C00E9CFEAE1F1E0B3
:1008C0001382128288EE93E0A0E0B0E084839583E7
:1008D000A683B78384E091E09183808385EC90E0E8
:1008E0009587848784EC90E09787868780EC90E0FA
:1008F000918B808B81EC90E0938B828B82EC90E0EB
:10090000958B848B86EC90E0978B868B118E128E64
:10091000138E148E08950E9492046894B1110C9461
:10092000210508950E94060588F09F5798F0B92F79
:100930009927B751B0F0E1F0660F771F881F991F14
:100940001AF0BA95C9F714C0B13091F00E94200591
:10095000B1E008950C942005672F782F8827B85FA1
:1009600039F0B93FCCF3869577956795B395D9F76C
:100970003EF490958095709561957F4F8F4F9F4F76
:100980000895E89409C097FB3EF490958095709582
:1009900061957F4F8F4F9F4F9923A9F0F92F96E9CB
:1009A000BB279395F695879577956795B795F11140
:1009B000F8CFFAF4BB0F11F460FF1BC06F5F7F4FDD
:1009C0008F4F9F4F16C0882311F096E911C07723EF
:1009D00021F09EE8872F762F05C0662371F096E8F8
:1009E000862F70E060E02AF09A95660F771F881FC7
:1009F000DAF7880F9695879597F9089557FD9058DF
:100A0000440F551F59F05F3F71F04795880F97FBD2
:100A1000991F61F09F3F79F087950895121613068C
:100A20001406551FF2CF4695F1DF08C016161706BB
:100A30001806991FF1CF86957105610508940895F0
:100A4000E894BB2766277727CB0197F908950E9482
:100A50003A050C94AB050E949D0538F00E94A40550
:100A600020F0952311F00C9494050C949A05112410
:100A70000C9421050E94FE0470F3959FC1F3950F1D
:100A800050E0551F629FF001729FBB27F00DB11D12
:100A9000639FAA27F00DB11DAA1F649F6627B00DA2
:100AA000A11D661F829F2227B00DA11D621F739F8B
:100AB000B00DA11D621F839FA00D611D221F749F99
:100AC0003327A00D611D231F849F600D211D822FE0
:100AD000762F6A2F11249F5750409AF0F1F0882307
:100AE0004AF0EE0FFF1FBB1F661F771F881F915034
:100AF0005040A9F79E3F510580F00C9494050C944A
:100B000021055F3FE4F3983ED4F38695779567958A
:100B1000B795F795E7959F5FC1F7FE2B880F911D5D
:100B20009695879597F9089597F99F6780E870E003
:100B300060E008959FEF80EC089500240A94161653
:100B4000170618060906089500240A9412161306BB
:100B5000140605060895092E0394000C11F4882349
:100B600052F0BB0F40F4BF2B11F460FF04C06F5F65
:100B70007F4F8F4F9F4F0895EE0FFF1F0590F49109
:100B8000E02D0994F894FFCF0000000000026001FE
:100B90008D014D02BE019C01B001534E4150000D2C
:020BA0000A0049
:107E000085E08093810082E08093C00088E18093C8
:107E1000C10086E08093C20080E18093C40084B7F3
:107E200014BE81FFD0D089E2C8D0259A86E020E335
:107E30003CEF91E0309385002093840096BBB09B8B
:107E4000FECF1D9AA8958150A9F7DD24D394A5E013
:107E5000EA2EF1E1FF2EA4D0813421F481E0BED0DE
:107E600083E024C0823411F484E103C0853419F422
:107E700085E0B4D08AC08535A1F492D0082F10E0F7
:107E800010930102009300028BD090E0982F882776
:107E9000802B912B880F991F9093010280930002F1
:107EA00073C0863529F484E099D080E071D06DC02C
:107EB000843609F043C07CD0E0910002F0910102C9
:107EC00083E080935700E895C0E0D1E069D08993C2
:107ED000809102028150809302028823B9F778D002
:107EE00007B600FCFDCF4091000250910102A0E0D6
:107EF000B1E02C9130E011968C91119790E0982F81
:107F00008827822B932B1296FA010C01D0925700EE
:107F1000E89511244E5F5F4FF1E0A038BF0749F7A5
:107F2000E0910002F0910102E0925700E89507B657
:107F300000FCFDCFF0925700E89527C08437B9F4D4
:107F400037D046D0E0910002F09101023196F093D3
:107F50000102E09300023197E4918E2F19D08091B5
:107F60000202815080930202882361F70EC0853798
:107F700039F42ED08EE10CD085E90AD08FE096CF6F
:107F8000813511F488E019D023D080E101D063CF8E
:107F9000982F8091C00085FFFCCF9093C600089574
:107FA000A8958091C00087FFFCCF8091C6000895FE
:107FB000F7DFF6DF80930202F3CFE0E6F0E098E12E
:107FC00090838083089580E0F8DFEE27FF270994EF
:107FD000E7DF803209F0F7DF84E1DACF1F93182F53
:0C7FE000DFDF1150E9F7F4DF1F91089576
:00000001FF
